{
  "_format": "hh-sol-artifact-1",
  "contractName": "NestcoinToken",
  "sourceName": "contracts/NestcoinToken.sol",
  "abi": [
    {
      "inputs": [],
      "stateMutability": "nonpayable",
      "type": "constructor"
    },
    {
      "anonymous": false,
      "inputs": [
        {
          "indexed": true,
          "internalType": "address",
          "name": "owner",
          "type": "address"
        },
        {
          "indexed": true,
          "internalType": "address",
          "name": "spender",
          "type": "address"
        },
        {
          "indexed": false,
          "internalType": "uint256",
          "name": "value",
          "type": "uint256"
        }
      ],
      "name": "Approval",
      "type": "event"
    },
    {
      "anonymous": false,
      "inputs": [
        {
          "indexed": true,
          "internalType": "address",
          "name": "from",
          "type": "address"
        },
        {
          "indexed": false,
          "internalType": "uint256",
          "name": "value",
          "type": "uint256"
        },
        {
          "indexed": false,
          "internalType": "string",
          "name": "item",
          "type": "string"
        }
      ],
      "name": "SwapToken",
      "type": "event"
    },
    {
      "anonymous": false,
      "inputs": [
        {
          "indexed": true,
          "internalType": "address",
          "name": "from",
          "type": "address"
        },
        {
          "indexed": true,
          "internalType": "address",
          "name": "to",
          "type": "address"
        },
        {
          "indexed": false,
          "internalType": "uint256",
          "name": "value",
          "type": "uint256"
        }
      ],
      "name": "Transfer",
      "type": "event"
    },
    {
      "inputs": [],
      "name": "_owner",
      "outputs": [
        {
          "internalType": "address",
          "name": "",
          "type": "address"
        }
      ],
      "stateMutability": "view",
      "type": "function"
    },
    {
      "inputs": [
        {
          "internalType": "address",
          "name": "owner",
          "type": "address"
        },
        {
          "internalType": "address",
          "name": "spender",
          "type": "address"
        }
      ],
      "name": "allowance",
      "outputs": [
        {
          "internalType": "uint256",
          "name": "",
          "type": "uint256"
        }
      ],
      "stateMutability": "view",
      "type": "function"
    },
    {
      "inputs": [
        {
          "internalType": "address",
          "name": "spender",
          "type": "address"
        },
        {
          "internalType": "uint256",
          "name": "amount",
          "type": "uint256"
        }
      ],
      "name": "approve",
      "outputs": [
        {
          "internalType": "bool",
          "name": "",
          "type": "bool"
        }
      ],
      "stateMutability": "nonpayable",
      "type": "function"
    },
    {
      "inputs": [
        {
          "internalType": "address",
          "name": "account",
          "type": "address"
        }
      ],
      "name": "balanceOf",
      "outputs": [
        {
          "internalType": "uint256",
          "name": "",
          "type": "uint256"
        }
      ],
      "stateMutability": "view",
      "type": "function"
    },
    {
      "inputs": [],
      "name": "batchOperator",
      "outputs": [
        {
          "internalType": "address",
          "name": "",
          "type": "address"
        }
      ],
      "stateMutability": "view",
      "type": "function"
    },
    {
      "inputs": [
        {
          "internalType": "address[]",
          "name": "addressesTo",
          "type": "address[]"
        },
        {
          "internalType": "uint256[]",
          "name": "amounts",
          "type": "uint256[]"
        }
      ],
      "name": "batchTransfer",
      "outputs": [
        {
          "internalType": "bool",
          "name": "success",
          "type": "bool"
        }
      ],
      "stateMutability": "nonpayable",
      "type": "function"
    },
    {
      "inputs": [
        {
          "internalType": "address",
          "name": "newOperator",
          "type": "address"
        }
      ],
      "name": "changeBatchOperator",
      "outputs": [],
      "stateMutability": "nonpayable",
      "type": "function"
    },
    {
      "inputs": [],
      "name": "checkTokenBalance",
      "outputs": [
        {
          "internalType": "uint256",
          "name": "",
          "type": "uint256"
        }
      ],
      "stateMutability": "view",
      "type": "function"
    },
    {
      "inputs": [],
      "name": "decimals",
      "outputs": [
        {
          "internalType": "uint8",
          "name": "",
          "type": "uint8"
        }
      ],
      "stateMutability": "view",
      "type": "function"
    },
    {
      "inputs": [
        {
          "internalType": "address",
          "name": "spender",
          "type": "address"
        },
        {
          "internalType": "uint256",
          "name": "subtractedValue",
          "type": "uint256"
        }
      ],
      "name": "decreaseAllowance",
      "outputs": [
        {
          "internalType": "bool",
          "name": "",
          "type": "bool"
        }
      ],
      "stateMutability": "nonpayable",
      "type": "function"
    },
    {
      "inputs": [
        {
          "internalType": "address",
          "name": "spender",
          "type": "address"
        },
        {
          "internalType": "uint256",
          "name": "addedValue",
          "type": "uint256"
        }
      ],
      "name": "increaseAllowance",
      "outputs": [
        {
          "internalType": "bool",
          "name": "",
          "type": "bool"
        }
      ],
      "stateMutability": "nonpayable",
      "type": "function"
    },
    {
      "inputs": [],
      "name": "name",
      "outputs": [
        {
          "internalType": "string",
          "name": "",
          "type": "string"
        }
      ],
      "stateMutability": "view",
      "type": "function"
    },
    {
      "inputs": [
        {
          "internalType": "uint256",
          "name": "amount",
          "type": "uint256"
        },
        {
          "internalType": "string",
          "name": "item",
          "type": "string"
        }
      ],
      "name": "swapToken",
      "outputs": [
        {
          "internalType": "bool",
          "name": "",
          "type": "bool"
        }
      ],
      "stateMutability": "nonpayable",
      "type": "function"
    },
    {
      "inputs": [],
      "name": "symbol",
      "outputs": [
        {
          "internalType": "string",
          "name": "",
          "type": "string"
        }
      ],
      "stateMutability": "view",
      "type": "function"
    },
    {
      "inputs": [],
      "name": "totalSupply",
      "outputs": [
        {
          "internalType": "uint256",
          "name": "",
          "type": "uint256"
        }
      ],
      "stateMutability": "view",
      "type": "function"
    },
    {
      "inputs": [
        {
          "internalType": "address",
          "name": "to",
          "type": "address"
        },
        {
          "internalType": "uint256",
          "name": "amount",
          "type": "uint256"
        }
      ],
      "name": "transfer",
      "outputs": [
        {
          "internalType": "bool",
          "name": "",
          "type": "bool"
        }
      ],
      "stateMutability": "nonpayable",
      "type": "function"
    },
    {
      "inputs": [
        {
          "internalType": "address",
          "name": "from",
          "type": "address"
        },
        {
          "internalType": "address",
          "name": "to",
          "type": "address"
        },
        {
          "internalType": "uint256",
          "name": "amount",
          "type": "uint256"
        }
      ],
      "name": "transferFrom",
      "outputs": [
        {
          "internalType": "bool",
          "name": "",
          "type": "bool"
        }
      ],
      "stateMutability": "nonpayable",
      "type": "function"
    },
    {
      "inputs": [],
      "name": "userBalance",
      "outputs": [
        {
          "internalType": "uint256",
          "name": "",
          "type": "uint256"
        }
      ],
      "stateMutability": "view",
      "type": "function"
    }
  ],
  "bytecode": "0x60806040523480156200001157600080fd5b506040518060400160405280600881526020017f4e657374636f696e0000000000000000000000000000000000000000000000008152506040518060400160405280600381526020017f4e58540000000000000000000000000000000000000000000000000000000000815250816003908051906020019062000096929190620002fc565b508060049080519060200190620000af929190620002fc565b505050620000cf336a18d0bf423c03d8de0000006200017960201b60201c565b33600560006101000a81548173ffffffffffffffffffffffffffffffffffffffff021916908373ffffffffffffffffffffffffffffffffffffffff160217905550600560009054906101000a900473ffffffffffffffffffffffffffffffffffffffff16600660006101000a81548173ffffffffffffffffffffffffffffffffffffffff021916908373ffffffffffffffffffffffffffffffffffffffff16021790555062000558565b600073ffffffffffffffffffffffffffffffffffffffff168273ffffffffffffffffffffffffffffffffffffffff161415620001ec576040517f08c379a0000000000000000000000000000000000000000000000000000000008152600401620001e390620003e4565b60405180910390fd5b6200020060008383620002f260201b60201c565b806002600082825462000214919062000434565b92505081905550806000808473ffffffffffffffffffffffffffffffffffffffff1673ffffffffffffffffffffffffffffffffffffffff16815260200190815260200160002060008282546200026b919062000434565b925050819055508173ffffffffffffffffffffffffffffffffffffffff16600073ffffffffffffffffffffffffffffffffffffffff167fddf252ad1be2c89b69c2b068fc378daa952ba7f163c4a11628f55a4df523b3ef83604051620002d2919062000406565b60405180910390a3620002ee60008383620002f760201b60201c565b5050565b505050565b505050565b8280546200030a906200049b565b90600052602060002090601f0160209004810192826200032e57600085556200037a565b82601f106200034957805160ff19168380011785556200037a565b828001600101855582156200037a579182015b82811115620003795782518255916020019190600101906200035c565b5b5090506200038991906200038d565b5090565b5b80821115620003a85760008160009055506001016200038e565b5090565b6000620003bb601f8362000423565b9150620003c8826200052f565b602082019050919050565b620003de8162000491565b82525050565b60006020820190508181036000830152620003ff81620003ac565b9050919050565b60006020820190506200041d6000830184620003d3565b92915050565b600082825260208201905092915050565b6000620004418262000491565b91506200044e8362000491565b9250827fffffffffffffffffffffffffffffffffffffffffffffffffffffffffffffffff03821115620004865762000485620004d1565b5b828201905092915050565b6000819050919050565b60006002820490506001821680620004b457607f821691505b60208210811415620004cb57620004ca62000500565b5b50919050565b7f4e487b7100000000000000000000000000000000000000000000000000000000600052601160045260246000fd5b7f4e487b7100000000000000000000000000000000000000000000000000000000600052602260045260246000fd5b7f45524332303a206d696e7420746f20746865207a65726f206164647265737300600082015250565b61233280620005686000396000f3fe608060405234801561001057600080fd5b50600436106101165760003560e01c806370a08231116100a2578063a457c2d711610071578063a457c2d71461030b578063a9059cbb1461033b578063b2bdfa7b1461036b578063bf15276514610389578063dd62ed3e146103a757610116565b806370a082311461026f57806388d695b21461029f57806395d89b41146102cf578063a14f686c146102ed57610116565b806323b872dd116100e957806323b872dd146101a3578063313ce567146101d357806339509351146101f15780634f73108714610221578063529828ad1461023f57610116565b8063022c62cf1461011b57806306fdde0314610137578063095ea7b31461015557806318160ddd14610185575b600080fd5b6101356004803603810190610130919061147d565b6103d7565b005b61013f61051b565b60405161014c9190611911565b60405180910390f35b61016f600480360381019061016a9190611531565b6105ad565b60405161017c91906118f6565b60405180910390f35b61018d6105d0565b60405161019a9190611b33565b60405180910390f35b6101bd60048036038101906101b891906114e2565b6105da565b6040516101ca91906118f6565b60405180910390f35b6101db610609565b6040516101e89190611b7e565b60405180910390f35b61020b60048036038101906102069190611531565b610612565b60405161021891906118f6565b60405180910390f35b6102296106bc565b6040516102369190611b33565b60405180910390f35b610259600480360381019061025491906115e2565b61075c565b60405161026691906118f6565b60405180910390f35b6102896004803603810190610284919061147d565b6107f8565b6040516102969190611b33565b60405180910390f35b6102b960048036038101906102b4919061156d565b610840565b6040516102c691906118f6565b60405180910390f35b6102d7610beb565b6040516102e49190611911565b60405180910390f35b6102f5610c7d565b60405161030291906118db565b60405180910390f35b61032560048036038101906103209190611531565b610ca3565b60405161033291906118f6565b60405180910390f35b61035560048036038101906103509190611531565b610d8d565b60405161036291906118f6565b60405180910390f35b610373610db0565b60405161038091906118db565b60405180910390f35b610391610dd6565b60405161039e9190611b33565b60405180910390f35b6103c160048036038101906103bc91906114a6565b610de6565b6040516103ce9190611b33565b60405180910390f35b600660009054906101000a900473ffffffffffffffffffffffffffffffffffffffff1673ffffffffffffffffffffffffffffffffffffffff163373ffffffffffffffffffffffffffffffffffffffff1614610467576040517f08c379a000000000000000000000000000000000000000000000000000000000815260040161045e90611af3565b60405180910390fd5b600073ffffffffffffffffffffffffffffffffffffffff168173ffffffffffffffffffffffffffffffffffffffff1614156104d7576040517f08c379a00000000000000000000000000000000000000000000000000000000081526004016104ce90611973565b60405180910390fd5b80600660006101000a81548173ffffffffffffffffffffffffffffffffffffffff021916908373ffffffffffffffffffffffffffffffffffffffff16021790555050565b60606003805461052a90611d52565b80601f016020809104026020016040519081016040528092919081815260200182805461055690611d52565b80156105a35780601f10610578576101008083540402835291602001916105a3565b820191906000526020600020905b81548152906001019060200180831161058657829003601f168201915b5050505050905090565b6000806105b8610e6d565b90506105c5818585610e75565b600191505092915050565b6000600254905090565b6000806105e5610e6d565b90506105f2858285611040565b6105fd8585856110cc565b60019150509392505050565b60006012905090565b60008061061d610e6d565b90506106b1818585600160008673ffffffffffffffffffffffffffffffffffffffff1673ffffffffffffffffffffffffffffffffffffffff16815260200190815260200160002060008973ffffffffffffffffffffffffffffffffffffffff1673ffffffffffffffffffffffffffffffffffffffff168152602001908152602001600020546106ac9190611c0b565b610e75565b600191505092915050565b6000600560009054906101000a900473ffffffffffffffffffffffffffffffffffffffff1673ffffffffffffffffffffffffffffffffffffffff163373ffffffffffffffffffffffffffffffffffffffff161461074e576040517f08c379a000000000000000000000000000000000000000000000000000000000815260040161074590611a33565b60405180910390fd5b610757336107f8565b905090565b600061079d600560009054906101000a900473ffffffffffffffffffffffffffffffffffffffff16670de0b6b3a7640000856107989190611c61565b610d8d565b503373ffffffffffffffffffffffffffffffffffffffff167fc028073442de8aebe754be587e3b20067865b500951e4d18714185ec3686b3b284846040516107e6929190611b4e565b60405180910390a26001905092915050565b60008060008373ffffffffffffffffffffffffffffffffffffffff1673ffffffffffffffffffffffffffffffffffffffff168152602001908152602001600020549050919050565b6000600660009054906101000a900473ffffffffffffffffffffffffffffffffffffffff1673ffffffffffffffffffffffffffffffffffffffff163373ffffffffffffffffffffffffffffffffffffffff16146108d2576040517f08c379a00000000000000000000000000000000000000000000000000000000081526004016108c990611af3565b60405180910390fd5b82829050858590501461091a576040517f08c379a000000000000000000000000000000000000000000000000000000000815260040161091190611ab3565b60405180910390fd5b60005b85859050811015610bde57600073ffffffffffffffffffffffffffffffffffffffff16868683818110610979577f4e487b7100000000000000000000000000000000000000000000000000000000600052603260045260246000fd5b905060200201602081019061098e919061147d565b73ffffffffffffffffffffffffffffffffffffffff1614156109e5576040517f08c379a00000000000000000000000000000000000000000000000000000000081526004016109dc90611a73565b60405180910390fd5b6000848483818110610a20577f4e487b7100000000000000000000000000000000000000000000000000000000600052603260045260246000fd5b905060200201351415610a68576040517f08c379a0000000000000000000000000000000000000000000000000000000008152600401610a5f90611933565b60405180910390fd5b60c8868690501115610aaf576040517f08c379a0000000000000000000000000000000000000000000000000000000008152600401610aa690611993565b60405180910390fd5b60c8848490501115610af6576040517f08c379a0000000000000000000000000000000000000000000000000000000008152600401610aed90611ad3565b60405180910390fd5b610b8c868683818110610b32577f4e487b7100000000000000000000000000000000000000000000000000000000600052603260045260246000fd5b9050602002016020810190610b47919061147d565b858584818110610b80577f4e487b7100000000000000000000000000000000000000000000000000000000600052603260045260246000fd5b90506020020135610d8d565b610bcb576040517f08c379a0000000000000000000000000000000000000000000000000000000008152600401610bc290611a13565b60405180910390fd5b8080610bd690611db5565b91505061091d565b5060019050949350505050565b606060048054610bfa90611d52565b80601f0160208091040260200160405190810160405280929190818152602001828054610c2690611d52565b8015610c735780601f10610c4857610100808354040283529160200191610c73565b820191906000526020600020905b815481529060010190602001808311610c5657829003601f168201915b5050505050905090565b600660009054906101000a900473ffffffffffffffffffffffffffffffffffffffff1681565b600080610cae610e6d565b90506000600160008373ffffffffffffffffffffffffffffffffffffffff1673ffffffffffffffffffffffffffffffffffffffff16815260200190815260200160002060008673ffffffffffffffffffffffffffffffffffffffff1673ffffffffffffffffffffffffffffffffffffffff16815260200190815260200160002054905083811015610d74576040517f08c379a0000000000000000000000000000000000000000000000000000000008152600401610d6b90611b13565b60405180910390fd5b610d818286868403610e75565b60019250505092915050565b600080610d98610e6d565b9050610da58185856110cc565b600191505092915050565b600560009054906101000a900473ffffffffffffffffffffffffffffffffffffffff1681565b6000610de1336107f8565b905090565b6000600160008473ffffffffffffffffffffffffffffffffffffffff1673ffffffffffffffffffffffffffffffffffffffff16815260200190815260200160002060008373ffffffffffffffffffffffffffffffffffffffff1673ffffffffffffffffffffffffffffffffffffffff16815260200190815260200160002054905092915050565b600033905090565b600073ffffffffffffffffffffffffffffffffffffffff168373ffffffffffffffffffffffffffffffffffffffff161415610ee5576040517f08c379a0000000000000000000000000000000000000000000000000000000008152600401610edc90611a93565b60405180910390fd5b600073ffffffffffffffffffffffffffffffffffffffff168273ffffffffffffffffffffffffffffffffffffffff161415610f55576040517f08c379a0000000000000000000000000000000000000000000000000000000008152600401610f4c906119b3565b60405180910390fd5b80600160008573ffffffffffffffffffffffffffffffffffffffff1673ffffffffffffffffffffffffffffffffffffffff16815260200190815260200160002060008473ffffffffffffffffffffffffffffffffffffffff1673ffffffffffffffffffffffffffffffffffffffff168152602001908152602001600020819055508173ffffffffffffffffffffffffffffffffffffffff168373ffffffffffffffffffffffffffffffffffffffff167f8c5be1e5ebec7d5bd14f71427d1e84f3dd0314c0f7b2291e5b200ac8c7c3b925836040516110339190611b33565b60405180910390a3505050565b600061104c8484610de6565b90507fffffffffffffffffffffffffffffffffffffffffffffffffffffffffffffffff81146110c657818110156110b8576040517f08c379a00000000000000000000000000000000000000000000000000000000081526004016110af906119d3565b60405180910390fd5b6110c58484848403610e75565b5b50505050565b600073ffffffffffffffffffffffffffffffffffffffff168373ffffffffffffffffffffffffffffffffffffffff16141561113c576040517f08c379a000000000000000000000000000000000000000000000000000000000815260040161113390611a53565b60405180910390fd5b600073ffffffffffffffffffffffffffffffffffffffff168273ffffffffffffffffffffffffffffffffffffffff1614156111ac576040517f08c379a00000000000000000000000000000000000000000000000000000000081526004016111a390611953565b60405180910390fd5b6111b783838361134d565b60008060008573ffffffffffffffffffffffffffffffffffffffff1673ffffffffffffffffffffffffffffffffffffffff1681526020019081526020016000205490508181101561123d576040517f08c379a0000000000000000000000000000000000000000000000000000000008152600401611234906119f3565b60405180910390fd5b8181036000808673ffffffffffffffffffffffffffffffffffffffff1673ffffffffffffffffffffffffffffffffffffffff16815260200190815260200160002081905550816000808573ffffffffffffffffffffffffffffffffffffffff1673ffffffffffffffffffffffffffffffffffffffff16815260200190815260200160002060008282546112d09190611c0b565b925050819055508273ffffffffffffffffffffffffffffffffffffffff168473ffffffffffffffffffffffffffffffffffffffff167fddf252ad1be2c89b69c2b068fc378daa952ba7f163c4a11628f55a4df523b3ef846040516113349190611b33565b60405180910390a3611347848484611352565b50505050565b505050565b505050565b600061136a61136584611bbe565b611b99565b90508281526020810184848401111561138257600080fd5b61138d848285611d10565b509392505050565b6000813590506113a4816122ce565b92915050565b60008083601f8401126113bc57600080fd5b8235905067ffffffffffffffff8111156113d557600080fd5b6020830191508360208202830111156113ed57600080fd5b9250929050565b60008083601f84011261140657600080fd5b8235905067ffffffffffffffff81111561141f57600080fd5b60208301915083602082028301111561143757600080fd5b9250929050565b600082601f83011261144f57600080fd5b813561145f848260208601611357565b91505092915050565b600081359050611477816122e5565b92915050565b60006020828403121561148f57600080fd5b600061149d84828501611395565b91505092915050565b600080604083850312156114b957600080fd5b60006114c785828601611395565b92505060206114d885828601611395565b9150509250929050565b6000806000606084860312156114f757600080fd5b600061150586828701611395565b935050602061151686828701611395565b925050604061152786828701611468565b9150509250925092565b6000806040838503121561154457600080fd5b600061155285828601611395565b925050602061156385828601611468565b9150509250929050565b6000806000806040858703121561158357600080fd5b600085013567ffffffffffffffff81111561159d57600080fd5b6115a9878288016113aa565b9450945050602085013567ffffffffffffffff8111156115c857600080fd5b6115d4878288016113f4565b925092505092959194509250565b600080604083850312156115f557600080fd5b600061160385828601611468565b925050602083013567ffffffffffffffff81111561162057600080fd5b61162c8582860161143e565b9150509250929050565b61163f81611cbb565b82525050565b61164e81611ccd565b82525050565b600061165f82611bef565b6116698185611bfa565b9350611679818560208601611d1f565b61168281611e8b565b840191505092915050565b600061169a601c83611bfa565b91506116a582611e9c565b602082019050919050565b60006116bd602383611bfa565b91506116c882611ec5565b604082019050919050565b60006116e0600f83611bfa565b91506116eb82611f14565b602082019050919050565b6000611703602483611bfa565b915061170e82611f3d565b604082019050919050565b6000611726602283611bfa565b915061173182611f8c565b604082019050919050565b6000611749601d83611bfa565b915061175482611fdb565b602082019050919050565b600061176c602683611bfa565b915061177782612004565b604082019050919050565b600061178f602783611bfa565b915061179a82612053565b604082019050919050565b60006117b2602e83611bfa565b91506117bd826120a2565b604082019050919050565b60006117d5602583611bfa565b91506117e0826120f1565b604082019050919050565b60006117f8600f83611bfa565b915061180382612140565b602082019050919050565b600061181b602483611bfa565b915061182682612169565b604082019050919050565b600061183e601883611bfa565b9150611849826121b8565b602082019050919050565b6000611861602183611bfa565b915061186c826121e1565b604082019050919050565b6000611884602b83611bfa565b915061188f82612230565b604082019050919050565b60006118a7602583611bfa565b91506118b28261227f565b604082019050919050565b6118c681611cf9565b82525050565b6118d581611d03565b82525050565b60006020820190506118f06000830184611636565b92915050565b600060208201905061190b6000830184611645565b92915050565b6000602082019050818103600083015261192b8184611654565b905092915050565b6000602082019050818103600083015261194c8161168d565b9050919050565b6000602082019050818103600083015261196c816116b0565b9050919050565b6000602082019050818103600083015261198c816116d3565b9050919050565b600060208201905081810360008301526119ac816116f6565b9050919050565b600060208201905081810360008301526119cc81611719565b9050919050565b600060208201905081810360008301526119ec8161173c565b9050919050565b60006020820190508181036000830152611a0c8161175f565b9050919050565b60006020820190508181036000830152611a2c81611782565b9050919050565b60006020820190508181036000830152611a4c816117a5565b9050919050565b60006020820190508181036000830152611a6c816117c8565b9050919050565b60006020820190508181036000830152611a8c816117eb565b9050919050565b60006020820190508181036000830152611aac8161180e565b9050919050565b60006020820190508181036000830152611acc81611831565b9050919050565b60006020820190508181036000830152611aec81611854565b9050919050565b60006020820190508181036000830152611b0c81611877565b9050919050565b60006020820190508181036000830152611b2c8161189a565b9050919050565b6000602082019050611b4860008301846118bd565b92915050565b6000604082019050611b6360008301856118bd565b8181036020830152611b758184611654565b90509392505050565b6000602082019050611b9360008301846118cc565b92915050565b6000611ba3611bb4565b9050611baf8282611d84565b919050565b6000604051905090565b600067ffffffffffffffff821115611bd957611bd8611e5c565b5b611be282611e8b565b9050602081019050919050565b600081519050919050565b600082825260208201905092915050565b6000611c1682611cf9565b9150611c2183611cf9565b9250827fffffffffffffffffffffffffffffffffffffffffffffffffffffffffffffffff03821115611c5657611c55611dfe565b5b828201905092915050565b6000611c6c82611cf9565b9150611c7783611cf9565b9250817fffffffffffffffffffffffffffffffffffffffffffffffffffffffffffffffff0483118215151615611cb057611caf611dfe565b5b828202905092915050565b6000611cc682611cd9565b9050919050565b60008115159050919050565b600073ffffffffffffffffffffffffffffffffffffffff82169050919050565b6000819050919050565b600060ff82169050919050565b82818337600083830152505050565b60005b83811015611d3d578082015181840152602081019050611d22565b83811115611d4c576000848401525b50505050565b60006002820490506001821680611d6a57607f821691505b60208210811415611d7e57611d7d611e2d565b5b50919050565b611d8d82611e8b565b810181811067ffffffffffffffff82111715611dac57611dab611e5c565b5b80604052505050565b6000611dc082611cf9565b91507fffffffffffffffffffffffffffffffffffffffffffffffffffffffffffffffff821415611df357611df2611dfe565b5b600182019050919050565b7f4e487b7100000000000000000000000000000000000000000000000000000000600052601160045260246000fd5b7f4e487b7100000000000000000000000000000000000000000000000000000000600052602260045260246000fd5b7f4e487b7100000000000000000000000000000000000000000000000000000000600052604160045260246000fd5b6000601f19601f8301169050919050565b7f596f752063616e74277420747261736e666572203020746f6b656e7300000000600082015250565b7f45524332303a207472616e7366657220746f20746865207a65726f206164647260008201527f6573730000000000000000000000000000000000000000000000000000000000602082015250565b7f496e76616c696420616464726573730000000000000000000000000000000000600082015250565b7f65786365656473206e756d626572206f6620616c6c6f7765642061646472657360008201527f7365737300000000000000000000000000000000000000000000000000000000602082015250565b7f45524332303a20617070726f766520746f20746865207a65726f20616464726560008201527f7373000000000000000000000000000000000000000000000000000000000000602082015250565b7f45524332303a20696e73756666696369656e7420616c6c6f77616e6365000000600082015250565b7f45524332303a207472616e7366657220616d6f756e742065786365656473206260008201527f616c616e63650000000000000000000000000000000000000000000000000000602082015250565b7f556e61626c6520746f207472616e7366657220746f6b656e20746f207468652060008201527f6163636f756e7400000000000000000000000000000000000000000000000000602082015250565b7f596f75277265206e6f7420617574686f726973656420746f20706572666f726d60008201527f20746869732066756e6374696f6e000000000000000000000000000000000000602082015250565b7f45524332303a207472616e736665722066726f6d20746865207a65726f20616460008201527f6472657373000000000000000000000000000000000000000000000000000000602082015250565b7f496e76616c696420416464726573730000000000000000000000000000000000600082015250565b7f45524332303a20617070726f76652066726f6d20746865207a65726f2061646460008201527f7265737300000000000000000000000000000000000000000000000000000000602082015250565b7f496e76616c696420696e70757420706172616d65746572730000000000000000600082015250565b7f65786365656473206e756d626572206f6620616c6c6f77656420616d6f756e7460008201527f7300000000000000000000000000000000000000000000000000000000000000602082015250565b7f4f6e6c7920746865206f70657261746f722063616e20706572666f726d20746860008201527f69732066756e6374696f6e000000000000000000000000000000000000000000602082015250565b7f45524332303a2064656372656173656420616c6c6f77616e63652062656c6f7760008201527f207a65726f000000000000000000000000000000000000000000000000000000602082015250565b6122d781611cbb565b81146122e257600080fd5b50565b6122ee81611cf9565b81146122f957600080fd5b5056fea2646970667358221220929b0461085710fed7d8c19cd089a1a75951e476c74fa2cf59a1a3e664d37f3a64736f6c63430008040033",
  "linkReferences": {},
  "deployedLinkReferences": {}
}